:100000000C9435030C9466030C9466030C946603FD
:100010000C9466030C9466030C9466030C946603BC
:100020000C9466030C9466030C9466030C946603AC
:100030000C9466030C9466030C9466030C9466039C
:100040000C9466030C9463320C9466030C94660360
:100050000C9466030C9466030C9466030C94213193
:100060000C9466030C9495310C946B310C946603DC
:100070000C9466030C9466030C9466030C9466035C
:100080000C9435320C9466030C9466030C9466034E
:100090000C9466030C9466030C9466030C949132E2
:1000A0000C9466030C9466030C9407320C9466035C
:1000B0000C9466030C9466030C9466030C94D9317B
:1000C0000C9466030C9466030C9466030C9466030C
:1000D0000C9466030C9466030C9466030C946603FC
:1000E0000C9466030C9446300C94B1200C94BA0620
:1000F0000C94921E0C94F11C0C94B30B0C94470DB1
:100100000C945B040C9452050C947D050C94A70B85
:100110000C94AD0B0C94D9270C94BF300C94E405CF
:100120000C94211A0C94B10B0C945E2F0C94CE09F4
:100130000C94620B0C947E060C948F050C94332F58
:100140000C94BC050C94CF2C0C94DE170C949230BC
:100150000C945E0C0C946B050C9473160C94770441
:100160000C9471080C94CC090C94A3050C94BA134C
:100170000C94DF270C940E300C942B0D0C94EA2B6E
:100180000C946C150C94B6160C9461050C94282BE9
:100190000C9474170C94AF0B0C94A90B0C94F009ED
:1001A0000C941E230C943C040C94CF240C94050D49
:1001B0000C94A0160C9476040C94D1300C94D62F89
:1001C0000C942F170C942A0C0C94B0210C948505D8
:1001D0000C94BA2D0C9460300C94CB090C94422AE8
:1001E0000C946D040C9444040C94A8220C94C60541
:1001F0000C94DF060C94A6150C9455040C9436044C
:100200000C948A290C944E0D0C94371A0C94BC173C
:100210000C94400D0C9485160C94DA300C94AD308F
:100220000C9469040C944A110C94AF150C945F045F
:100230000C94090C0C94FF2D0C947B040C94320D3F
:100240000C94780F0C9498180C94791E0C94A41AA2
:100250000C9461170C944D1E0C94B5330C94D1166C
:100260000C9475050C94DD090C94390D0C942C1626
:100270000C94A4280C947F0C0C94001D0C94C70AB9
:100280000C94CE290C94E3160C949D150C944B17EA
:100290000C944B040C94E10A0C94A4300C94B10C13
:1002A0000C944B1A0C94B2050C9499050C949C1B5D
:1002B0000C947E150C949B300C94D0050C94AB0BD5
:1002C0000C94A4170C94800B0C94D21B0C94E33068
:1002D0000C9494150C94EF1D0C942B240C948030EA
:1002E0000C9463150C94A50B0C9471040C944004AD
:1002F0000C9475150C948A230C94CA150C94510413
:100300000C94C91D0C9470270C94892B0C947203C7
:100310000C94CD090C945B200C94B4270C94C83039
:100320000C94AB060C94D4170C94240D0C94FC166E
:100330000C94D4130C94482E0C94D1060C941907E9
:100340000C9418170C94C70C0C94DF240C94A51E65
:100350000C944A050C941D0A0C9448040C94B63075
:100360000C94B8150C9489300C944D2C0C94FC1200
:100370000C9445150C94C7220C94F81E0C94660737
:100380000C94661E0C9463040C941C0D0C94B01811
:100390000C942B0B0C9457050C9436130C94DA0523
:1003A0000C942E0B0C948C176E2F61004F4B004F4A
:1003B0004B004F4B00646F6573206E6F742066694D
:1003C0007420696E204D656D6F7279004661696CAD
:1003D0007572652C20454550524F4D2073697A65E2
:1003E00020657863656564656420004D46537465D7
:1003F0007070657220646F6573206E6F742066691B
:100400007420696E204D656D6F7279004375737449
:100410006F6D20446576696365206973206E6F7423
:1004200020737570706F72746564206279207468CF
:100430006973206669726D77617265207665727383
:10044000696F6E00437573746F6D204465766963E0
:100450006520646F6573206E6F742066697420690F
:100460006E204D656D6F7279004661696C757265BD
:10047000206F6E2072656164696E6720636F6E66BF
:1004800069670050726F705761736853696D204BD4
:100490004150313430204D656761007E306D7933D5
:1004A0005B5F707F7B771F0D3D4F470000000000B2
:1004B000000000000000000000000000000000003C
:1004C00000000000000000800180257E306D79333F
:1004D0005B5F707F7B00000009000000777F4E7E2D
:1004E0004F475F37307C000E00767E677E775B4635
:1004F0003E000000336D4E13780008007D1F0D3D57
:100500004F477B373038000600151D6773055B0FBA
:100510001C000000276D4E0078000044657669637A
:1005200065427566666572204F766572666C6F7798
:1005300021004C6F6164696E6720636F6E66696746
:10054000206661696C6564000000210024002700BA
:100550002A002D00300033000101000004010701D2
:100560000A0100002200250028002B002E00310087
:10057000340002010000050108010B010000200009
:100580002300260029002C002F003200000100006B
:100590000301060109010505050507050808080806
:1005A000020202020A0A080804040404010101010B
:1005B0000101010103030303030303030407070706
:1005C0000C0C0C0C0C0C0C0C0202020206060606AB
:1005D000060606060B0B0B0B0B0B0B0B0102102078
:1005E0002008081020401020408002010201080469
:1005F00002010102040810204080804020100804FD
:100600000201800402018040201008040201080455
:100610000201010204081020408001020408102099
:10062000408000000A0B02090C0D0E0807030401AC
:1006300000000000000000000000000000000000BA
:100640000000000000000000000000000000121187
:10065000100000000000000000000000000000008A
:100660000000000000000000B53311241FBECFEFD2
:10067000D1E2DEBFCDBF00E00CBF13E0A0E0B2E0EE
:10068000E0E0FAE700E00BBF02C007900D92A23B4A
:10069000B107D9F721E1A2EBB3E001C01D92AA385E
:1006A000B207E1F713E0C5E3D3E000E006C021970D
:1006B0000109802FFE010E94713BC433D10780E005
:1006C0000807A9F70E944C340C94FE3C0C940000DF
:1006D00091E09093740F8093960F1092750F109283
:1006E000970F08958091260F9091270F891B990BE2
:1006F0000895AC0110926F1090913F1180913E11BE
:10070000FA01BF01641B750B20916F10308130938B
:100710006F10931304C0921302C010926F103081B7
:10072000311104C0921721F0CB0108953817D1F38D
:100730003196E7CF0F931F93CF93DF9380913311BF
:10074000882309F446C0D0E0C0E0813029F482E07B
:1007500080933311C3E7D0E180913411882341F1B4
:10076000209721F4C0913811D09139118E01CE011A
:100770000E947903892B29F42196F8018081811147
:10078000F5CFF8018081882309F1C8010E9479031F
:10079000F801E80FF91F8081882311F0108231964B
:1007A000F0933911E09338111093371100933611FB
:1007B0008091361190913711892B59F081E0809307
:1007C0003411DF91CF911F910F91089510E000E057
:1007D000EBCF80E0F6CF0E949A03882351F081E0AE
:1007E0008093341180933511809136119091371197
:1007F00008951092351190E080E00895CF93DF9333
:10080000DC01FD01EC012881222351F030913F11E0
:10081000231301C00196FC0120812D930196F1CF95
:10082000E817F90710F41192FBCFDF91CF910895EB
:100830008150823108F05AC0E82FF0E08827EC5D43
:10084000FB4F8F4F0C94713B4404480436043C0426
:10085000400476044B04510455045B045F046304B4
:1008600069046D047604710477047B048091800030
:100870008F77809380000895809180008F7DF9CFDD
:1008800080918000877FF5CF84B58F7784BD0895F0
:1008900084B58F7DFBCF8091B0008F778093B000BF
:1008A00008958091B0008F7DF9CF809190008F776F
:1008B000809390000895809190008F7DF9CF809172
:1008C0009000877FF5CF8091A0008F778093A00064
:1008D00008958091A0008F7DF9CF8091A000877F3F
:1008E000F5CF809120018F7780932001089580912A
:1008F00020018F7DF9CF80912001877FF5CFCF93A5
:10090000DF93282F30E0F901EE5DF94F8491F90172
:10091000E452FA4FD491F901EA56FA4FC491CC232C
:10092000A1F081110E941804EC2FF0E0EE0FFF1FE0
:10093000E458FA4FA591B491EC91ED2381E090E059
:1009400009F480E0DF91CF91089580E090E0FACF44
:100950001F93CF93DF93282F30E0F901EE5DF94F1D
:100960008491F901E452FA4FD491F901EA56FA4F11
:10097000C491CC23A9F0162F81110E941804EC2FEA
:10098000F0E0EE0FFF1FEE59FA4FA591B4918FB72B
:10099000F894EC91111108C0D095DE23DC938FBF41
:1009A000DF91CF911F910895DE2BF8CFCF93DF9386
:1009B00090E0FC01E452FA4F24918A569A4FFC01D0
:1009C00084918823C9F090E0880F991FFC01E85BAF
:1009D000FA4FA591B491FC01EE59FA4FC591D4910B
:1009E00061110DC09FB7F8948C91209582238C9350
:1009F0008881282328839FBFDF91CF91089562309B
:100A000051F49FB7F8943C91822F809583238C9367
:100A1000E8812E2BEFCF8FB7F894EC912E2B2C93EF
:100A20008FBFEACF1F93CF93DF93182FEB0161E0C5
:100A30000E94D604209739F460E0812FDF91CF9196
:100A40001F910C94A804CF3FD10511F461E0F5CFBC
:100A5000E12FF0E0EE5DF94FE491E150E23108F072
:100A6000B3C0F0E08827E85CFA4F8F4F0C94713BDD
:100A70004A055205570561056B05E40575057D05B9
:100A800085058F059905A305B205BC05E405C605D6
:100A9000D005DA0584B5806884BDC7BDDF91CF91EC
:100AA0001F91089584B5806284BDC8BDF7CF809141
:100AB0008000806880938000D0938900C093880074
:100AC000EDCF80918000806280938000D0938B0076
:100AD000C0938A00E3CF809180008860809380007B
:100AE000D0938D00C0938C00D9CF8091B0008068E6
:100AF0008093B000C093B300D1CF8091B0008062EA
:100B00008093B000C093B400C9CF809190008068FA
:100B100080939000D0939900C0939800BFCF8091AC
:100B20009000806280939000D0939B00C0939A00C5
:100B3000B5CF80919000886080939000D0939D0005
:100B4000C0939C00ABCF8091A00080688093A000F0
:100B50008091A0008F7B8093A000D093A900C093C8
:100B6000A8009CCF8091A00080628093A000D093C9
:100B7000AB00C093AA0092CF8091A00088608093C0
:100B8000A000D093AD00C093AC0088CF809120012D
:100B9000806880932001D0932901C09328017ECFE3
:100BA00080912001806280932001D0932B01C0931B
:100BB0002A0174CF80912001886080932001D09316
:100BC0002D01C0932C016ACFC038D1050CF03ECF67
:100BD00033CF3FB7F89480913A0B90913B0BA091A3
:100BE0003C0BB0913D0B26B5A89B05C02F3F19F0DB
:100BF0000196A11DB11D3FBFBA2FA92F982F88279D
:100C0000BC01CD01620F711D811D911D42E0660F77
:100C1000771F881F991F4A95D1F708958F929F9249
:100C2000AF92BF92CF92DF92EF92FF926B017C0165
:100C30000E94E9054B015C01C114D104E104F104F7
:100C4000B9F00E94E905681979098A099B09683E8B
:100C500073408105910580F321E0C21AD108E108B3
:100C6000F10888EE880E83E0981EA11CB11CE4CF29
:100C7000FF90EF90DF90CF90BF90AF909F908F90BC
:100C800008952FB7F8946091360B7091370B8091CF
:100C9000380B9091390B2FBF0895DC01ED91FC9139
:100CA0000190F081E02D1994EF92FF920F931F9322
:100CB000CF93DF937C0160913E1180913B11909125
:100CC0003C110E944D0600913B1110913C11E7012F
:100CD000FE016491662359F0D801ED91FC910190D9
:100CE000F081E02DC80119952196892B89F7DF91B4
:100CF000CF911F910F91FF90EF900895AF92BF9207
:100D0000CF92DF92EF92FF920F931F93CF93DF93D7
:100D10006C017B018B01040F151FEB015E01AE1806
:100D2000BF08C017D10759F06991D601ED91FC9128
:100D30000190F081E02DC6011995892B79F7C50145
:100D4000DF91CF911F910F91FF90EF90DF90CF90A7
:100D5000BF90AF900895FC01538D448D252F30E056
:100D6000842F90E0821B930B541710F0CF960895B8
:100D700001970895FC01918D828D981779F0A28DCD
:100D8000AE0FBF2FB11D5D962C91828D8F5F60E6F7
:100D90000E94513B928F822F90E008958FEF9FEF3A
:100DA0000895FC01918D828D981731F0828DE80FA6
:100DB000F11D858D90E008958FEF9FEF0895FC0160
:100DC000918D228D892F90E0805A9F4F821B91092F
:100DD00060E670E00E945D3B08958DEA9FE00E940E
:100DE000DF0621E0892B09F420E0822F0895FC0121
:100DF000A48DA80FB92FB11DA358BF4F2C91848D7E
:100E000090E001968F739927848FA689B7892C93D8
:100E1000A089B1898C91837080648C93938D848D2B
:100E2000981306C00288F389E02D80818F7D80832E
:100E30000895EF92FF920F931F93CF93DF93EC01EE
:100E400081E0888F9B8D8C8D98131AC0E889F98971
:100E5000808185FF15C09FB7F894EE89FF89608374
:100E6000E889F98980818370806480839FBF81E0F5
:100E700090E0DF91CF911F910F91FF90EF90089537
:100E8000F62E0B8D10E00F5F1F4F0F731127E02E12
:100E90008C8D8E110CC00FB607FCFACFE889F9894A
:100EA000808185FFF5CFCE010E94F706F1CFEB8D53
:100EB000EC0FFD2FF11DE358FF4FF0829FB7F89420
:100EC0000B8FEA89FB8980818062CFCFCF93DF933C
:100ED000EC01888D8823B9F0AA89BB89E889F98952
:100EE0008C9185FD03C0808186FD0DC00FB607FC87
:100EF000F7CF8C9185FFF2CF808185FFEDCFCE01BA
:100F00000E94F706E9CFDF91CF91089580E090E04D
:100F1000892B29F00E94ED0681110E94000080E0DB
:100F200090E0892B49F080E090E0892B29F00E9425
:100F3000000081110E94000080E090E0892B49F0C0
:100F400080E090E0892B29F00E94000081110E942E
:100F5000000080E090E0892B49F080E090E0892B50
:100F600029F00E94000081110C9400000895AF92B6
:100F7000BF92CF92DF92EF92FF920F931F93CF9386
:100F8000DF936B017A01EC01CD5FD44F28813CE007
:100F9000389F8001399F100D1124A090020BB12CB5
:100FA00027FF1FC0FB011182108288818F5F888319
:100FB00088819801280F311D87FD3A95F6012A1581
:100FC0003B051CF488818C30C4F1808191810496AA
:100FD00080349C4908F473C0F601808191810496A5
:100FE00070C088819801280F311D87FD3A952A1518
:100FF0003B05DCF68881A801480F511D87FD5A95F5
:10100000FA01EE0FFF1FE40FF51FEE58F54F808138
:1010100086FFCBCF8881F801E80FF11D87FDFA9597
:10102000CF01EE0FFF1FE80FF91FEE58F54F80813B
:1010300060E08F730E94A804B8CF808191812881DD
:10104000A801420F511D27FD5A959A01FA01EE0F92
:10105000FF1FE20FF31FEE58F54F21813281820FFF
:10106000931FF7019183808388819801280F311D98
:1010700087FD3A95F901EE0FFF1FE20FF31FEE58BF
:10108000F54F808186FF22C08881080F111D87FDE2
:101090001A95F801EE0FFF1FE00FF11FEE58F54F04
:1010A000808161E08F73DF91CF911F910F91FF904D
:1010B000EF90DF90CF90BF90AF900C94A80480E4A5
:1010C0009CE9F701918380838FEF8883DF91CF9133
:1010D0001F910F91FF90EF90DF90CF90BF90AF9056
:1010E0000895089520914D0A260F3327331F21328A
:1010F0003105ECF420916E0FFC0190E080E024308B
:1011000069F082E00895A0914D0A2191AC01455DFE
:10111000554FA40FB52FB11D2C930196861798F348
:1011200080914D0A680F60934D0A80E0089581E038
:10113000089510926E0F81E080936D0F1092480F0A
:1011400061E084E10E94A80461E085E10E94A804B6
:10115000E9EBF0E080818E7F808380818D7F8083CA
:1011600088E48093B80085E48093BC000895CF9311
:10117000DF9391E090932A0A8823B9F0C091B800D8
:10118000D091BA008091BC008A7B8093BC0060E063
:1011900084E10E94A80460E085E10E94A8040E9406
:1011A0009908D093BA00C093B800DF91CF91089509
:1011B0008F929F92AF92BF92CF92DF92EF92FF9267
:1011C0000F931F93CF93DF93D091970FD13208F0F5
:1011D000D7C0182FC091960F0E94E9056B017C01C2
:1011E00080916E0F81116BC082E080936E0F10931F
:1011F0006D0F8FEF80936C0F10926B0FD0936A0F6F
:10120000A6E7BFE0EAE4FFE080E0D81391C01092C7
:10121000490F8091490FCC0FC82BC093490F809183
:10122000480F813009F088C01092480F0E94E905EC
:101230006B017C018091490F8093BB008091700FFE
:101240009091710FA091720FB091730F892B8A2B1F
:101250008B2BA1F00E94E9050091700F1091710F86
:101260002091720F3091730F6C197D098E099F09BF
:10127000061717072807390708F442C08091BC00F9
:1012800083FDD8CF85EC8093BC000E94E9056B01FB
:101290007C0180916E0F823009F450C080916C0FF8
:1012A0008F3F09F46FC080916C0F803209F46CC0DD
:1012B00080916C0F803309F469C084E026C080916E
:1012C000700F9091710FA091720FB091730F892BD5
:1012D0008A2B8B2B09F484CF0E94E9058090700F34
:1012E0009090710FA090720FB090730F6C197D09E0
:1012F0008E099F0986169706A806B90608F070CFD2
:1013000080916F0F0E94B70885E01092750F1092C0
:10131000970F1092740FDF91CF911F910F91FF9053
:10132000EF90DF90CF90BF90AF909F908F900895F7
:101330009D9191938F5F69CF85EEA5CF8091700FBE
:101340009091710FA091720FB091730F892B8A2B1E
:101350008B2B09F49ECF0E94E9050091700F10912C
:10136000710F2091720F3091730F6C197D098E09E6
:101370009F09061717072807390708F08ACFC0CF3B
:1013800081E0C3CF80E0C1CF82E0BFCF83E0BDCF9B
:1013900081E00C94D808089508950895E091270FEE
:1013A0008091260FE81730F4F0E0E85DF04F80817F
:1013B00090E008958FEF9FEF08959091270F80910F
:1013C000260F2FEF3FEF981748F4E92FF0E0E85D84
:1013D000F04F208130E09F5F9093270FC90108955F
:1013E000CF92DF92EF92FF920F931F93CF93DF93F1
:1013F0007C01CB018A012091740F222389F0EB013B
:101400006B01C40ED51ECC15DD0569F06991D701BD
:10141000ED91FC910190F081E02DC7011995F3CF7A
:10142000642F0E947208C801DF91CF911F910F9124
:10143000FF90EF90DF90CF900895CF93DF931F92AE
:10144000CDB7DEB769832091740F2223F9F0209184
:10145000970F203258F021E030E0FC0133832283E3
:1014600090E080E00F90DF91CF9108958091750F0B
:10147000E82FF0E0EA58F04F998190838F5F8093D6
:10148000750F8093970F81E090E0ECCF61E0CE0183
:1014900001960E947208F7CF682F88E99FE00C94AC
:1014A0001D0ACF93C82F846090E00E944C0A8C2FB5
:1014B00090E08B7FCF910C944C0A0F931F93CF93A6
:1014C000DF938C01C62FD42FFC0184810E94680316
:1014D0008C2F807F8D2BF8019585892B0E94510AD6
:1014E000F0E1CF9FC0011124F8019585892B8D2B48
:1014F0000E94510ADF91CF911F910F910C94C8095E
:10150000CF93DF9300D000D01F921F92CDB7DEB7EC
:1015100028E0EFE3F2E0DE01119601900D922A95AA
:10152000E1F7FC012385241710F44FEF420F50E040
:10153000440F551F21E030E02C0F3D1F420F531F79
:10154000FA012081620F606840E028960FB6F89497
:10155000DEBF0FBECDBFDF91CF910C945D0ACF935C
:10156000DF93EC0140E061E00E945D0A8BE39FE1C4
:101570000197F1F78985882339F040E060E0CE01DA
:10158000DF91CF910C94800ADF91CF91089541E0D3
:101590000E945D0A81E090E008950F931F93CF931E
:1015A0008C01C62FFC0184810E946803C07FF80172
:1015B00085858C2B0E94510ACF911F910F910C941D
:1015C000C809AF92BF92CF92DF92FF920F931F9301
:1015D000CF93DF936C01F62E172F042FFC0184812B
:1015E0000E946803CF2DD12F10E05E01A00EB11E26
:1015F000F12CCA15DB0509F18991F60195859160F9
:10160000807F892B0E94510AFE0131972081F0E1F1
:101610002F0290011124F60185858160822B0E94A2
:10162000510AF394F7E0FF1520F780E00E94D808F4
:10163000F60184810E946803DBCF0E94C809C801BB
:101640000197DF91CF911F910F91FF90DF90CF9085
:10165000BF90AF90089590E080E00895CF93DF931E
:10166000FC012381222359F1EC0161E084810E9475
:10167000D60461E08D810E94D6048B81843011F004
:101680008830B1F461E08E810E94D60461E08F81E0
:101690000E94D6048FA58F3F91F061E00E94D6048E
:1016A0006EA581E068278FA5DF91CF910C94A804E7
:1016B000833011F0863071F761E08E81E9CFDF91E0
:1016C000CF910895CF93DF93FC0123812223A9F0CA
:1016D000EC010190F081E02D0480F581E02D60E0C7
:1016E00019958FA58F3F49F061E00E94D6046EA541
:1016F0008FA5DF91CF910C94A804DF91CF9108952D
:10170000DC01ED91FC9111972481358147705527BB
:101710006627772741505109610971094730510502
:101720006105710570F4FA018827E656F44F8F4F72
:101730000C94713BA50BA70BA90BAB0BAD0BAF0B1F
:10174000B10B61E0CD01F901199465E0FBCF64E0D4
:10175000F9CF66E0F7CF62E0F5CF6AE0F3CF68E05B
:10176000F1CF69E0EFCFCF93DF93EC01CB01BA016A
:1017700026E030E040E050E00E94DE3A6230710541
:101780008105910589F16CF461157105810591055B
:10179000D1F06130710581059105F9F0DF91CF91AC
:1017A0000895643071058105910561F124F165307A
:1017B00071058105910591F7E881F9810480F58132
:1017C000E02D66E006C0E881F9810480F581E02D16
:1017D00064E0CE01DF91CF911994E881F981048012
:1017E000F581E02D65E0F5CFE881F9810480F58190
:1017F000E02D61E0EECFE881F9810480F581E02DF4
:1018000063E0E7CFE881F9810480F581E02D62E0B3
:10181000E0CFDC01ED91FC910480F581E02D437077
:10182000552766277727423051056105710571F00C
:10183000433051056105710559F04130510561058D
:10184000710511F065E0199466E0FDCF6AE0FBCF09
:1018500069E0F9CFCF93DF93EC01CB01BA0123E02C
:1018600030E040E050E00E94DE3A613071058105D1
:10187000910599F06230710581059105A9F0672BFA
:10188000682B692BC1F4E881F9810480F581E02D92
:1018900064E0CE01DF91CF911994E881F981048051
:1018A000F581E02D61E0F5CFE881F9810480F581D3
:1018B000E02D62E0EECFDF91CF910895DC01ED9154
:1018C000FC910480F581E02D43705527662777272A
:1018D000423051056105710571F0433051056105D4
:1018E000710559F0413051056105710511F062E053
:1018F000199463E0FDCF61E0FBCF60E0F9CFCF93B7
:10190000DF93EC01E881F9810480F581E02D8A8183
:1019100060E0811162E0CE011995E881F9810480CF
:10192000F581E02D8A8161E0811163E0CE01199596
:101930008CA59DA58230910538F0880F991F880FDE
:10194000991F05970197F1F7E881F9810480F581E6
:10195000E02D8A8160E0811162E0CE01DF91CF91BC
:101960001994CF93DF93EC0120E030E0A9016C895A
:101970007D898E899F890E948E3C18162CF4E8A9D7
:10198000F9A9DF91CF911994EAA9FBA9FACFCF92D7
:10199000DF92EF92FF920F931F93CF93DF93DC01BF
:1019A0001396CC91C43039F0C83059F1C33019F0D6
:1019B000C63049F1C2E08C010C5F1F4FF12CE12CC5
:1019C000C62ED12CD1E0F8016481C6010E2C02C0D4
:1019D000959587950A94E2F780FD6D270F5F1F4F5D
:1019E00080810E94A804BFEFEB1AFB0AEC1658F3A3
:1019F000DF91CF911F910F91FF90EF90DF90CF90EB
:101A00000895C4E0D8CFC3E0D6CFDC011396EC91A3
:101A10001397E93008F042C0F0E08827ED5EF24FFE
:101A20008F4F0C94713B1C0D240D2B0D320D390D75
:101A30004E0D400D4E0D470DED91FC911197008418
:101A4000F185E02DCD011994ED91FC91119702845F
:101A5000F385E02DF7CFED91FC9111970484F58586
:101A6000E02DF0CFED91FC9111970684F785E02DE4
:101A7000E9CFED91FC9111970088F189E02DE2CF3B
:101A8000ED91FC9111970288F389E02DDBCFED9168
:101A9000FC9111970488F589E02DD4CF08954F92D9
:101AA0005F926F927F928F929F92AF92BF92CF92EE
:101AB000DF92EF92FF920F931F93CF93DF93EC018E
:101AC000C888D988EA88FB888C859D85AE85BF85C6
:101AD000C81AD90AEA0AFB0A6C897D898E899F890E
:101AE0009B01AC010E940A3A4B015C016C8D7D8D1B
:101AF0008E8D9F8D9B01AC010E947A3B9B01AC01B6
:101B0000C501B4010E94E63B0E94583CC114D104B7
:101B1000E104F10409F0B1C062307105810591055D
:101B20000CF0CBC01CA21DA21EA21FA21C8A1D8AE3
:101B30001E8A1F8A1CAA1DAA1EAA1FAADF91CF9166
:101B40001F910F91FF90EF90DF90CF90BF90AF90DB
:101B50009F908F907F906F905F904F900895101698
:101B6000110612061306B4F46C157D058E059F054B
:101B70001CF42A812111A1C09B01AC01882799275F
:101B8000DC01821B930BA40BB50B8CAB9DABAEABF6
:101B9000BFAB93C0011511052105310509F48DC0B6
:101BA0006C157D058E059F050CF087C08A81882302
:101BB00009F483C030952095109501951F4F2F4F44
:101BC0003F4F0CAB1DAB2EAB3FAB77C001151105E2
:101BD0002105310509F471C08824992454018C1819
:101BE0009D08AE08BF08681579058A059B050CF0AD
:101BF00064C08A81811161C0DDCFCCACDDACEEACBC
:101C0000FFACA7019601C701B6010E947A3B2B01E8
:101C10003C01C501B4010E94AB3920E030E040E84E
:101C200050E40E940A3A20E030E040E85FE30E947E
:101C30007A3B9B01AC01C301B2010E94E63B9B01D0
:101C4000AC01C701B6010E94793B3B016C01FE016A
:101C5000E05CFF4FE080F180028113819701A801D1
:101C60000E948E3C181614F473018601C701D80136
:101C70008CAF9DAFAEAFBFAF3AC00CA91DA92EA9C6
:101C80003FA91C141D041E041F040CF468CF101679
:101C90001106120613060CF099CF002711279801A0
:101CA0000C191D092E093F09601771078207930758
:101CB0000CF062CF2A8121115FCF8CA89DA8AEA81D
:101CC000BFA881149104A104B10409F096CF88AD96
:101CD00099ADAAADBBAD8CAF9DAFAEAFBFAF81E04C
:101CE0001C141D041E041F040CF080E08A833FEFC7
:101CF000831A930AA30AB30A8CAA9DAAAEAABFAA02
:101D0000CCACDDACEEACFFACC701B6010E945F3CD1
:101D10006CA37DA38EA39FA3A701960160E074E24C
:101D200084E799E40E94E63B6C8B7D8B8E8B9F8BC6
:101D30002A81211103CF90586C8B7D8B8E8B9F8BCA
:101D4000FDCECF92DF92EF92FF920F931F93CF932E
:101D5000DF93EC016A017B0120E030E0A901CB01B7
:101D6000B6010E94A43987FF04C0F7FAF094F7F88F
:101D7000F094A7019601688D798D8A8D9B8D0E94C4
:101D8000A439882309F446C0C88ED98EEA8EFB8E0A
:101D90008E01005C1F4FA701960160E074E284E7AA
:101DA00099E40E94E63BF801608371838283938308
:101DB0008CA99DA9AEA9BFA9181619061A061B065B
:101DC0004CF56C897D898E899F899B01AC010E94AD
:101DD0000A3A6B017C016C8D7D8D8E8D9F8D9B01F0
:101DE000AC010E947A3B9B01AC01C701B6010E9485
:101DF000E63B0E94583C6CAB7DAB8EAB9FABCE01FB
:101E0000DF91CF911F910F91FF90EF90DF90CF90D6
:101E10000C944F0DDF91CF911F910F91FF90EF9098
:101E2000DF90CF9008958F929F92AF92BF92EF92E2
:101E3000FF920F931F93CF937C018B01C42F0E94BD
:101E40004106F80180809180A280B380DC01CB0143
:101E500088199909AA09BB094C2F50E070E060E08D
:101E600084179507A607B70748F0F70119950E9450
:101E70004106F8016083718382839383CF911F9120
:101E80000F91FF90EF90BF90AF909F908F9008952B
:101E90002091280A3091290A280F391F81E0213426
:101EA000364008F080E00895FC0180818823F9F035
:101EB00084818823E1F08181811119C081E08183CF
:101EC00082819381FC0140895189628973894036FE
:101ED00059476E4F7F4F59F040E659E76EEF7FEF5D
:101EE000FC01408B518B628B738B0C944F0D0895CA
:101EF0004F925F926F927F928F929F92AF92BF921A
:101F0000CF92DF92EF92FF920F931F93CF93DF93C5
:101F1000D12CA7E1CA2E08E810E0B8E5EB2EB2E01C
:101F2000FB2EC4EB4C2E512C612C712C8091E703BD
:101F3000D81608F096C0C091E503D091E603DC9C6A
:101F4000C00DD11D112489899A89AB89BC894D8521
:101F50005E856F85788984179507A607B70709F40A
:101F60007AC0481759076A077B070CF076C00197BB
:101F7000A109B109898B9A8BAB8BBC8BA989BA89D2
:101F8000A03282E0B807ACF52B854801821A91088F
:101F900027FD9394880C991C880C991C092C000C23
:101FA000AA08BB082C85C701821B910927FD9395C0
:101FB0009C01220F331F220F331F032E000C440BF2
:101FC000550B281939094A095B09A53BB10514F0DD
:101FD000A4EBB0E0B7FF02C0B0E0A0E00E94083B75
:101FE000A30192010E94DE3A820E931EA41EB51E2A
:101FF000D401EA85E03378F52B85C801821B91096D
:1020000027FD93959C01220F331F220F331FA21728
:10201000B3077CF02C85C701821B910927FD93959E
:102020009C01220F331F220F331FA217B3070CF49A
:102030009D0122503109220F331F4FB7F8948E2F84
:1020400090E0FC01EE0FFF1FE80FF91FEE58F54F6F
:10205000328321834FBFD39469CF0196A11DB11D57
:1020600089CFDF91CF911F910F91FF90EF90DF907B
:10207000CF90BF90AF909F908F907F906F905F9028
:102080004F9008958BE891E00197F1F70895EF9252
:10209000FF920F931F93CF93DF93EC01162FE42E43
:1020A000FF24F394442311F080E8F82E08E061E067
:1020B0008A810E94D6040E94421061E08F2D812304
:1020C00009F060E089810E94D6040E94421060E01D
:1020D0008A810E94D6040E944210EE2081F1110FE5
:1020E000015029F761E08A810E94D60460E089816D
:1020F0000E94D6040E94421060E08A810E94D604A9
:102100000E94421089810E947F04182F811104C00F
:1021100061E089810E94D6040E94421061E08A81B8
:102120000E94D6040E94421081E0111101C080E09B
:10213000DF91CF911F910F91FF90EF900895169529
:10214000CFCFCF93DF93EC0161E089810E94D60469
:102150000E94421060E08A810E94D6040E944210D0
:1021600060E089810E94D604DF91CF910C944210E7
:1021700061E0FC0181810E94D6040C944210AF9270
:10218000BF92CF92DF92EF92FF920F931F93CF9364
:10219000DF93EC01162F042FAC880E94B81040E0AA
:1021A00060E4CE010E944710CE010E94A11010955C
:1021B0008C89180FC02ED12CE12EF12C84E0B12E89
:1021C000A81631F0F601EE0DFF1DE557FD4FB0806A
:1021D000CE010E94B81060EC6B0D40E0CE010E9471
:1021E00047108C89CE0CDF1C8C151D0414F4082FAD
:1021F000011B10E0DD24DA94D00EEC0EFD1E011759
:1022000081F084E0ED2DE11BA81201C0E12FEE0D5D
:10221000FF2DF11D41E06481CE010E9447101F5F38
:10222000EECFCE01DF91CF911F910F91FF90EF90F4
:10223000DF90CF90BF90AF900C94A110EF92FF92DF
:102240001F93CF93DF93EC01162F8C8180FF10C07A
:10225000603170F46D837E0184E0E80EF11C612F23
:10226000617089910E94A8041695EC16FD06B9F7D5
:10227000DF91CF911F91FF90EF900895DC01842FA3
:10228000E091DC03F091DD03309719F04D915C9102
:10229000199408954F925F926F927F928F929F92BE
:1022A000AF92BF92CF92DF92EF92FF920F931F9364
:1022B000CF93DF93F12C6FE1E62E8091D803F816CF
:1022C00008F0EAC0C091D603D091D703FE9CC00DA0
:1022D000D11D11248A81882309F4B2C088810E940B
:1022E0007F048C0189810E947F046C010E94410659
:1022F0004B015C0181E090E0CD2811F090E080E09E
:10230000880F991F21E0012B09F020E0922F982BD4
:102310004B8D5C8D6D8D7E8D95018401041B150B9D
:10232000260B370BB901A80145365105610571052A
:1023300008F488C08885823008F484C08B8E9C8E17
:10234000AD8EBE8E81508887EE859E1709F445C0FC
:10235000888503E310E0873010F401E010E06D851C
:1023600024E0E202F0011124492F092E000C550B44
:10237000E42BF52BE458FD4F708170039001719FA1
:10238000300D1124062E02C0220F331F0A94E2F7EB
:10239000EF85F8892E0F3F1F388B2F874C0F5D1F5D
:1023A000FA0141854423C1F04B885C886D887E88A2
:1023B0004F8A588E698E7A8E8B8A9C8AAD8ABE8AA5
:1023C00002C0359527956A95E2F73A8B298B8C30B8
:1023D00008F08BE08F5F88879E8709891A898D8135
:1023E0009E810817190761F19801281B390BC90153
:1023F000E091D403F091D5036901CC0CDD1C30973A
:1024000009F447C06B817C812F5C3F4F2336310537
:10241000D0F597FD2FC080E01995C00ED11E31E494
:10242000C3163FE1D30654F08F85988983709927AE
:10243000988B8F871A8A198A10E000E01E830D831B
:10244000F3943BCF4F89588D698D7A8D9501840126
:10245000041B150B260B370BB901A801453F514052
:102460006105710508F470CF8B8E9C8EAD8EBE8E8B
:1024700018866ACF82E01995C8018C199D09803CA5
:10248000904E94F2DBCF97FD02C081E0C5CF83E090
:10249000F2CF37FDF1CFC1CFDF91CF911F910F91D7
:1024A000FF90EF90DF90CF90BF90AF909F908F9074
:1024B0007F906F905F904F900895CF92DF92EF9250
:1024C000FF920F931F93CF93DF936C017A0180915A
:1024D000D2039091D303892B31F1D60113968C91BD
:1024E00000E181FD08E0EB01CE25DF2510E0C0FF13
:1024F00013C08091D2039091D303892B69F0E091AE
:10250000D003F091D103309739F0D6014D915C9111
:10251000612F8E2D81701995D695C795F694E79405
:102520001F5F0113E4CFDF91CF911F910F91FF90B7
:10253000EF90DF90CF900895AF92BF92CF92DF924D
:10254000EF92FF920F931F93CF93DF931F92CDB71C
:10255000DEB7C090D203D090D303C114D10409F4E4
:102560003FC0FC01238130E1B32E21FF02C028E0EF
:10257000B22EA62E8C01F60185818683F12CE12CEA
:10258000BA946B2DC6010E941E11F80182810E942F
:102590007F048983F80182810E947F048983EE0C85
:1025A000FF1C298181E090E0211102C090E080E0D1
:1025B000E82AF92AB110E4CFF6016681C6010E942B
:1025C0001E11F801648175816E157F0549F0AA20FE
:1025D00021F0A701C8010E945D12F801F582E48292
:1025E0000F90DF91CF911F910F91FF90EF90DF90AF
:1025F000CF90BF90AF900895CF93DF93C0E0D6E027
:102600008091CF03C81768F48091CD039091CE03D9
:1026100061E0CD9F800D911D11240E949C12CF5F1F
:10262000EFCFDF91CF910895E091C803F091C903F6
:10263000309751F0DC0113962C911397222321F04F
:102640006D917C9181E019940895E091C803F09117
:10265000C903309751F0DC0113962C911397211187
:1026600004C06D917C9180E0199408950F931F939D
:10267000CF93DF9310E005E08091C703181730F582
:10268000C091C503D091C603109FC00DD11D112468
:102690008C81882399F08A810E947F049B8189170D
:1026A00069F091E0811101C090E09B839C818111D0
:1026B00007C0992319F0CE010E9425131F5FDCCFBC
:1026C0009923E1F3CE010E941413F8CFDF91CF914B
:1026D0001F910F910895FC01A08DB0E01396AA0FF1
:1026E000BB1FA80FB91F868997892D913C91821B2A
:1026F000930B978B868B8281863308F086532091CB
:102700007B00982F9870277F922B90937B00877087
:10271000806480937C0080917A00806480937A004A
:1027200080917A0086FDFCCF9091780080917900AD
:10273000A08DB0E01396AA0FBB1FAE0FBF1F892755
:10274000982789278D939C93A08DB0E01396AA0FAC
:10275000BB1FAE0FBF1F868997892D913C91820FB9
:10276000931F978B868B808D8F5F808F808D877076
:10277000808F0895CF93DF93C0E0DEE18091C403A2
:10278000C81778F48091C2039091C303CD9F800D48
:10279000911D1124FC01258D21110E946B13CF5F27
:1027A000EDCFDF91CF910895CF93DF93C0E0DEE1CD
:1027B0008091C403C817C8F5A091C203B091C303A8
:1027C000CD9FA00DB11D11245D968C915D9788233E
:1027D00051F156968D919C91579723E09695879548
:1027E0002A95E1F713962D913C911497AC01421B69
:1027F000530B9A0157FF03C0319521953109159666
:102800004C9115974217130609F06CF414969C939B
:102810008E931397E091C003F091C103309719F0A4
:102820006D917C911995CF5FC3CFDF91CF910895C2
:10283000CF92DF92EF92FF920F931F93CF93DF938C
:10284000D82F0E94E9056B017C0180916E0F8111E8
:1028500065C0CD2F81E080936E0F80936D0F9FEF49
:1028600090936C0F10926B0F9D0F90936A0F809353
:10287000490F8091490F8E678093490F8091480FCF
:10288000813009F07FC01092480F0E94E9056B016A
:102890007C018091490F8093BB008091700F9091D3
:1028A000710FA091720FB091730F892B8A2B8B2B14
:1028B000A1F00E94E9050091700F1091710F209115
:1028C000720F3091730F6C197D098E099F090617DD
:1028D00017072807390708F442C08091BC0083FD20
:1028E000D8CF85EC8093BC000E94E9056B017C0188
:1028F00080916E0F813009F447C080916B0F8D1766
:1029000010F4C0916B0FAAE4BFE0E8E2FFE080E0C2
:102910008C1751F19D9191938F5FFACF8091700F39
:102920009091710FA091720FB091730F892B8A2B28
:102930008B2B09F48ACF0E94E9050091700F10914A
:10294000710F2091720F3091730F6C197D098E09F0
:102950009F09061717072807390708F076CF8091D7
:102960006F0F0E94B708C0E01092270FC093260F88
:102970008C2FDF91CF911F910F91FF90EF90DF90FF
:10298000CF90089585EEAECF8091700F9091710F2A
:10299000A091720FB091730F892B8A2B8B2B09F4A6
:1029A000A7CF0E94E9050091700F1091710F20913F
:1029B000720F3091730F6C197D098E099F090617EC
:1029C00017072807390708F093CFC9CFAF92BF92F6
:1029D000CF92DF92EF92FF921F93CF93DF93CDB709
:1029E000DEB766970FB6F894DEBF0FBECDBF7C0191
:1029F000162F8FE30E94680390E080E00E944C0A4B
:102A00000E94C80986E190E00E9418149091260F58
:102A10008091270F9817F1F39E012F5F3F4F6901B7
:102A20005E0137E1A30EB11C88E99FE00E94DD0939
:102A3000F60181936F01EA15FB05B1F7F7013197B4
:102A4000EB30F10588F48827E75DFA4E8F4F0C9440
:102A5000713B451563156C1575157E1594159D15FF
:102A6000A615AF15B815CA158FE30E94680385E057
:102A700090E00E944C0A8E8190E08F7E20E130E051
:102A8000111185C030E020E082C08FE30E9468030E
:102A900084E090E00E944C0A8D8190E08E7F812B33
:102AA0000E944C0A66960FB6F894DEBF0FBECDBFEB
:102AB000DF91CF911F91FF90EF90DF90CF90BF906B
:102AC000AF900C94C8098FE30E94680382E190E004
:102AD0000E944C0A8B89E1CF8FE30E94680384E057
:102AE00090E00E944C0A8D81C7CF8FE30E9468035B
:102AF00086E090E00E944C0A8F81BECF8FE30E9457
:102B0000680387E090E00E944C0AE12EF12C888552
:102B10008E7F9701282BC9010E944C0A89858E7FE0
:102B2000F701E82BCF01BCCF8FE30E94680388E058
:102B300090E00E944C0A89859FCF8FE30E94680332
:102B400089E090E00E944C0A8A8596CF8FE30E942C
:102B500068038BE090E00E944C0A8C858DCF8FE358
:102B60000E9468038DE090E00E944C0A8E8584CF1D
:102B70008FE30E94680384E090E00E944C0A8D81FC
:102B800090E08F7D20E230E0112309F47BCF822B8F
:102B9000932B86CF8FE30E94680384E090E00E942D
:102BA0004C0A8D8190E08F7320EC30E01111EFCF53
:102BB00069CFCF92DF92EF92FF920F931F93CF9343
:102BC000DF93CDB7DEB766970FB6F894DEBF0FBEC2
:102BD000CDBF8C018FE30E94680390E080E00E94EB
:102BE0004C0A0E94C80986E190E00E941814909156
:102BF000260F8091270F9817F1F3CE0101967C01E3
:102C00006E0197E1C90ED11C88E99FE00E94DD09A1
:102C1000F70181937F01EC15FD05B1F7F8013197BC
:102C2000E231F10508F032C08827E65EF94E8F4F99
:102C30000C94713B73168516A016B616D1162C1679
:102C4000FC1618172F174B17E31674178C17A417B9
:102C5000BC176117DE17D4178FE30E94680390E05A
:102C600080E00E944C0A90E080E00E944C0A90E0D4
:102C700080E00E944C0A90E080E00E944C0A90E0C4
:102C800080E00E944C0A8D81817F1AC08FE30E94F0
:102C9000680390E080E00E944C0A8EE090E00E9481
:102CA0004C0A8EEA90E00E944C0A86E090E00E9476
:102CB0004C0A8BE890E00E944C0A8D81817F8660EF
:102CC00090E00E944C0A66960FB6F894DEBF0FBEE5
:102CD000CDBFDF91CF911F910F91FF90EF90DF90CB
:102CE000CF900C94C8098FE30E94680390E080E0C5
:102CF0000E944C0A8EE890E00E944C0A8EEE90E012
:102D00000E944C0A88E890E0B8CF8FE30E946803E5
:102D100090E080E00E944C0A8AE690E00E944C0A13
:102D20008AEE90E00E944C0A88EC90E00E944C0AE7
:102D300080E690E00E944C0A8D81817F8A60C0CF3E
:102D40008FE30E94680390E080E00E944C0A8EEAC4
:102D500090E00E944C0A8CEB90E00E944C0A88ECB8
:102D600090E00E944C0A8BE090E08BCF8FE30E94B2
:102D7000680390E080E00E944C0A8EE890E00E9498
:102D80004C0A8EEE90E00E944C0A88E890E00E9487
:102D90004C0A8EEA90E00E944C0A8D81817F8C6003
:102DA0008FCF8FE30E94680390E080E00E944C0A7E
:102DB0008EEA90E00E944C0A8CEF90E00E944C0A50
:102DC00088E090E0B3CF8FE30E94680385E090E055
:102DD0000E944C0A8E81807190E00E944C0A8F8183
:102DE000807190E00E944C0A8885817090E00E947A
:102DF0004C0A8985817164CF8FE30E94680385E066
:102E000090E00E944C0A8E8180718E6E90E00E944C
:102E10004C0A8F8180718B6090E00E944C0A8885FB
:102E2000817090E00E944C0A898581718E6048CF44
:102E30008FE30E94680385E090E00E944C0A8E8137
:102E400080718E6C90E00E944C0A8F8180718E6838
:102E500090E00E944C0A888581708460E2CF8FE305
:102E60000E94680385E090E00E944C0A8E81807188
:102E700090E00E944C0A8F818071806690E00E94F1
:102E80004C0A888581708A6D90E00E944C0A898581
:102E90008171886415CF8FE30E94680385E090E01C
:102EA0000E944C0A8E81807190E00E944C0A8F81B2
:102EB00080718B6890E00E944C0A88858170866DD5
:102EC000E3CF8FE30E94680382E190E00E944C0A06
:102ED0008B89817090E00E944C0A90E080E00E9413
:102EE0004C0A90E080E05BC08FE30E94680382E1BF
:102EF00090E00E944C0A8B8981708A6690E00E9463
:102F00004C0A80EA90E00E944C0A8FEC90E00E940C
:102F10004C0A8AEE90E0D5CE8FE30E94680382E1EE
:102F200090E00E944C0A8B8981708A6690E00E9432
:102F30004C0A80EF90E00E944C0A8EEA90E00E94DA
:102F40004C0A86EA90E0BDCE8FE30E94680382E1DE
:102F500090E00E944C0A8B8981708C6A90E00E94FC
:102F60004C0A8EEE90E00E944C0A8EEE90E00E9499
:102F70004C0A88EE90E0A5CE8FE30E94680382E1C0
:102F800090E00E944C0A8B898170866890E00E94D4
:102F90004C0A8DEB90E00E944C0A8BE090E00E947E
:102FA0004C0A90E080E08DCE8FE30E9468038EE0B3
:102FB00090E00E944C0A90E080E08DCF8FE30E9469
:102FC00068038EE090E00E944C0A80EE90E00E9440
:102FD0004C0A90E080E00E944C0A8BEE90E0C7CF54
:102FE000BF92CF92DF92EF92FF920F931F93CF93F6
:102FF000DF93EC0160E088810E94A804FB800F2D24
:1030000010E00C5F1F4F0C0F1D1FFF20E1F0F801B7
:10301000D2908F01C980BA8088E0E82E6D2D661F9E
:103020006627661F8B2D0E94A804DD0C61E08C2DA5
:103030000E94A80460E08C2D0E94A804EA94E1108C
:10304000EDCFFA94E2CF61E08881DF91CF911F91BB
:103050000F91FF90EF90DF90CF90BF900C94A80459
:103060009F92AF92BF92CF92DF92EF92FF920F9317
:103070001F93CF93DF93EC01C62E61E08B810E94FA
:10308000A80461E08A810E94A80410E08D811817CD
:1030900008F03FC0DB80BC8087E0E82EF12C00E028
:1030A00061E08D2D0E94A8048B2D0E947F040E2CC0
:1030B00001C0880F0A94EAF7082B60E08D2D0E946A
:1030C000A80481E0E81AF10858F75E01A10EB11CCE
:1030D000F501D780D016D9F0CC20B9F0912E990CFB
:1030E000990C990CE02EF12C8D2D8E2580FF07C0B8
:1030F0004E2D4170692D6F0DCE010E943E11D69468
:10310000E694F394F8E0FF12EFCFF50107831F5F19
:10311000BDCF60E08A81DF91CF911F910F91FF9029
:10312000EF90DF90CF90BF90AF909F900C94A80449
:10313000CF93DF93C0E0DBE08091DB03C81768F436
:103140008091D9039091DA0361E0CD9F800D911DAC
:1031500011240E943018CF5FEFCFDF91CF910895F7
:103160006F927F928F929F92AF92BF92CF92DF9297
:10317000EF92FF920F931F93CF93DF93C0E0D5E0C0
:103180008091C703C81778F48091C5039091C60356
:10319000CD9F800D911D1124FC01248121110E94DD
:1031A0001413CF5FEDCFC0E0D5E08091C703C817FF
:1031B00078F48091C5039091C603CD9F800D911D39
:1031C0001124FC01248121110E942513CF5FEDCF32
:1031D00010E05BE0752E8091DB03181708F057C0F4
:1031E000C091D903D091DA03179DC00DD11D1124D0
:1031F00060E0CE010E9430186E01F7E0CF0ED11CC6
:103200005601612C912C812C8D8188151904D9F0DF
:10321000D4F0F50181915F0100E0E82EF12C80FFF0
:1032200006C041E0662D600FCE010E943E11F5946C
:10323000E7948E2D0F5F083081F7FFEF8F1A9F0AFA
:1032400088E0680EE1CF912CF12CE12C8D818E1558
:103250001F04D9F0D4F0F60181916F0100E0A82E8F
:10326000B12C80FD06C040E0692D600FCE010E94A8
:103270003E11B594A7948A2D0F5F083081F7FFEFB8
:10328000EF1AFF0A88E0980EE1CF1F5FA4CF10E08D
:1032900006E08091CF031817E0F4C091CD03D091E0
:1032A000CE03109FC00DD11D112460E0CE010E94FD
:1032B0009C124C815D8170E060E0CE010E945D1245
:1032C0004C815D816FEF7FEFCE010E945D121F5F29
:1032D000E0CFC0E0DEE18091C403C81728F5A091DB
:1032E000C203B091C303CD9FA00DB11D11245D9603
:1032F0008C915D978823B1F056968D919C9157974C
:1033000023E0969587952A95E1F714969C938E93E2
:103310001397E091C003F091C103309719F06D91BC
:103320007C911995CF5FD7CFDF91CF911F910F91EE
:10333000FF90EF90DF90CF90BF90AF909F908F90D5
:103340007F906F9008952091AB0F3091AC0F821752
:10335000930710F40C94C83A80E008950F931F93DC
:10336000CF93DF938C01EB01F801808191819C0167
:103370002F5F3F4F318320830E94A3192881398119
:10338000A9014F5F5F4F59834883225C344FF90195
:10339000808328813981283EF3E03F0760F48A3337
:1033A00019F7235C344FF901108281E0DF91CF914E
:1033B0001F910F91089580E0F9CFCF92DF92EF92A5
:1033C000FF920F931F93CF93DF938C01C090AB0FAD
:1033D000D090AC0FC62FD0E0F801808191817C01A4
:1033E000FFEFEF1AFF0AF801F182E0820E94A319B1
:1033F000CE14DF0480F0082E000C990B8C179D076B
:1034000059F781E0DF91CF911F910F91FF90EF90DD
:10341000DF90CF90089580E0F5CF0E949A03882333
:1034200059F081E0809334118093351180913611E9
:10343000909137110C9417391092351190E080E07B
:103440000895CF930E940D1AC82F0E940D1A61E0B3
:103450008F3F910519F0009729F460E08C2FCF91F0
:103460000C94A804BC018C2FCF910C9412050E94DF
:103470000D1A9091140B891768F42091120B30915A
:10348000130BA9016EE0869F400D511D1124CA0146
:103490000C94540F08950F931F930E940D1A90914E
:1034A000140B891708F04DC0E091120BF091130B2B
:1034B0009EE0899FE00DF11D11248081882309F48D
:1034C00040C0A281B3811C961D921D921D921C9238
:1034D0001F9750961D921D921D921C925397D49641
:1034E0001D921D921D921C92D79794961D921D922B
:1034F0001D921C92979754961D921D921D921C929C
:10350000579784858823E9F082819381428550E032
:10351000519541955109052E000C660B770BFC0166
:10352000008911892289338940175107620773077F
:1035300041F0408B518B628B738B1F910F910C94D8
:103540004F0D1F910F9108958F929F92AF92BF924E
:10355000CF92DF92EF92FF921F93CF93DF930E945F
:103560000D1A7C010E940D1ABC018091E7038E1593
:103570001F0409F00CF4A8C027E12E9DC0012F9D67
:10358000900D1124C091E503D091E603C80FD91F17
:10359000CD80DE800D2C000CEE08FF0889809A801B
:1035A000092C000CAA08BB082F813885032E000CBB
:1035B000440B550B2C193D094E095F09072E000CD1
:1035C000880B990B681979098A099B090E94413B6C
:1035D0002B813C81032E000C440B550B2819390913
:1035E0004A095B090E94DE3ABA01A9014C0D5D1D32
:1035F0006E1D7F1D052E000C660B770B8D859E853D
:10360000AF85B88984179507A607B70709F45CC08A
:103610004D875E876F87788B8985811155C08A8534
:10362000803308F04FC0188161E0812F0E94D604DA
:103630008A85282F30E0F901EE0FFF1FE20FF31FFC
:10364000EE58F54F1F739081907C912B90831B86D1
:103650001C862CE0622F0E94513B829FB0011124F6
:1036600030E020E0AB01420F531FFA01EE0FFF1FC5
:10367000E40FF51FEE58F54F908196FD16C02F5FB1
:103680003F4F2C30310571F7813051F51092800099
:1036900082E0809381001092850010928400B19A9C
:1036A00080916F00826080936F00EA858E2F90E09A
:1036B000FC01EE0FFF1FE80FF91FEE58F54F808158
:1036C0008064808381E08987DF91CF911F91FF9093
:1036D000EF90DF90CF90BF90AF909F908F90089524
:1036E000823061F4109290008093910010929500C6
:1036F0001092940088BB80937100D7CF833069F417
:103700001092A00082E08093A1001092A500109278
:10371000A40089BB80937200C8CF8111C6CF1092DC
:10372000200182E080932101109225011092240152
:103730008ABB80937300B9CFEF92FF921F93CF9310
:10374000DF930E940D1AEC010E94EB037C010E94A2
:10375000FE0322E12C9FC0012D9F900D1124C091EA
:10376000DE03D091DF03C80FD91F8E858823A1F017
:1037700010E08989811781F0412F60E0CE010E941D
:10378000800A4889B701149F600D711D1124CE0174
:103790000E94E10A1F5FEDCFDF91CF911F91FF9053
:1037A000EF9008950E940D1A892B49F010920C0B8E
:1037B00010920D0B10920E0B10920F0B08950E9499
:1037C000410660930C0B70930D0B80930E0B90933E
:1037D0000F0B0895AF92BF92CF92DF92EF92FF92BC
:1037E0000F931F93CF93DF9300D01F92CDB7DEB717
:1037F0005C0119821A821B821C82CE0101967C0117
:1038000010E000E06C01F501808191819C012F5F47
:103810003F4F318320830E94A319F7018083F80171
:103820008E3241F00F5F1F4F8FEFE81AF80A043015
:10383000110549F7EC0DFD1D1082C6010E941739D4
:103840000F900F900F900F90DF91CF911F910F91DC
:10385000FF90EF90DF90CF90BF90AF900895FB0165
:1038600001900020E9F73197AF01461B570BDC01AF
:10387000ED91FC910280F381E02D199480916A1002
:103880008823A1F060913D1180913B1190913C11F2
:103890000E944D0680917210882341F060ED72E025
:1038A00080913B1190913C110E942F1C109271103D
:1038B00010926A1080E008958F929F92AF92BF920B
:1038C000EF92FF920F931F93CF93DF93CDB7DEB7A5
:1038D000A1970FB6F894DEBF0FBECDBF7C01FA01F1
:1038E000CB0119A2223008F42AE08E010F5D1F4F90
:1038F000822E912CB12CA12CBF01A50194010E9414
:10390000103BF901CA016A300CF5605DD8016E9375
:103910008D01232B242B252B79F790E080E0109745
:1039200021F0BD01C7010E942F1CA1960FB6F8948B
:10393000DEBF0FBECDBFDF91CF911F910F91FF90E2
:10394000EF90BF90AF909F908F900895695CDECF0D
:10395000CF9390916A109923A9F0C82F60913E11DE
:1039600080913B1190913C110E944D064C2F50E0EC
:1039700070E060E02AE080913B1190913C11CF9182
:103980000C945C1CCF91089590916A10911110C015
:1039900091E090936A1090937110482F50E070E07E
:1039A00060E02AE080913B1190913C110C945C1CEA
:1039B0000895CF93DF9390916A1091110EC0EB019F
:1039C0000E94C41C80916A10882319F0CE010E94C5
:1039D0005406DF91CF910C943E1C80E0DF91CF9193
:1039E00008950E94410660930C0B70930D0B809319
:1039F0000E0B90930F0B68EA73E085E00C94D91CD2
:103A00000F931F93CF93DF931092C7031092D803A5
:103A100010920B0B9091E203E091E303F091E40329
:103A200080E0981721F0168A8F5F7796FACF109270
:103A3000E2033091E703A091E503B091E60320E0B3
:103A40003217D1F019968C911997882391F01A9614
:103A5000EC911A978E2F90E0FC01EE0FFF1FE80FFC
:103A6000F91FEE58F54F80818F7B808319961C9249
:103A700019972F5F5796E4CF1092E7039091140B9C
:103A8000E091120BF091130B80E0981721F0108257
:103A90008F5F3E96FACF1092140B9091B903E0918C
:103AA000DE03F091DF0380E0981731F026852111C5
:103AB00016868F5F7296F8CF1092B9031092C403E6
:103AC0009091BC03E091E003F091E10380E098174E
:103AD00031F02085211110868F5F3996F8CF109232
:103AE000BC039091DB03E091D903F091DA0380E00D
:103AF000981721F016828F5F3B96FACF1092DB0366
:103B000010E006E08091CF031817A0F4C091CD0318
:103B1000D091CE03109FC00DD11D11248B8180FF49
:103B200007C062E08A810E94D6048B818E7F8B83DE
:103B30001F5FE8CF1092CF032091CC0330E0E091DB
:103B4000CA03F091CB0390E080E02817390761F0B9
:103B500010824681413029F4A181B2814C914111FA
:103B60001C9201963796F1CF1092CC031092080B5D
:103B70001092070B1092110B1092290A1092280A2A
:103B80006CEA73E085E0DF91CF911F910F910C9467
:103B9000D91C6FEA73E08FE00C94D91C2091280A9D
:103BA0003091290A820F931F9093290A8093280A43
:103BB0008034964040F06BE175E085E00E94D91CAE
:103BC00090E080E00895C90188519C4F089581E0FC
:103BD0008093110B62EB73E081E10C94D91CCF93BD
:103BE000DF938AE00E94C41C8091070B9091080B20
:103BF000892B91F18BE390E00E94A319C82F80914B
:103C00006A10882379F060913E1180913B11909168
:103C10003C110E944D066C2F80913B1190913C11FC
:103C20000E944D06C1E0D0E08091070B9091080BF7
:103C3000C817D90788F4CE01CB960E94A31990919A
:103C40006A10992339F0682F80913B1190913C11B3
:103C50000E944D062196E8CFDF91CF910C943E1C37
:103C6000CF93DF9320916A102223A1F0EC016091A1
:103C70003E1180913B1190913C110E944D0620977E
:103C800049F0BE0180913B1190913C11DF91CF91A1
:103C90000C942F1CDF91CF9108950F931F93CF9316
:103CA000DF93C82FD62F8A018DE10E94C41CC80162
:103CB0000E94301E8D2F0E94A81C8C2F0E94A81CD1
:103CC000DF91CF911F910F910C943E1C0F931F9386
:103CD000CF93C82F8B0186E00E94C41CC8010E94AC
:103CE000301E8C2F0E94A81CCF911F910F910C9415
:103CF0003E1C0F931F93CF93DF93C82FD62F8A01BB
:103D00008EE10E94C41CC8010E94301E8D2F0E94AB
:103D1000A81C8C2F0E94A81CDF91CF911F910F919E
:103D20000C943E1C0F931F93CF93C82F8B0187E0F9
:103D30000E94C41CC8010E94301E8C2F0E94A81C27
:103D4000CF911F910F910C943E1CCF92DF92EF9276
:103D5000FF92CF93DF936C01EB018CE10E94C41CB6
:103D6000CE010E94301E80916A10882321F160915B
:103D70003E1180913B1190913C110E944D06C091E3
:103D80003B11D0913C110D2C000CEE08FF082AE0ED
:103D9000B701A601F7FE0CC06DE2CE010E944D06F0
:103DA00044275527BA014C195D096E097F092AE09D
:103DB000CE010E945C1CDF91CF91FF90EF90DF90CD
:103DC000CF900C943E1CCF93DF93EC0185E00E94D2
:103DD000C41CCE010E94301E80916A10882321F0FD
:103DE00085EB93E00E945406DF91CF910C943E1C2A
:103DF000FB0101900020E9F73197AF01461B570BFB
:103E0000DC01ED91FC910284F385E02D1994CF92B1
:103E1000DF92EF92FF920F931F93CF93DF938C016A
:103E2000EB01FC01D0886D2D70E0FE0101900020B7
:103E3000E9F7CF0101978C1B9D0B86179707B0F40C
:103E4000681B790B76956795D82EC8010E94800A69
:103E5000CC2EEC2EFD2E8E2D8C198D1548F4F701ED
:103E600061917F01C8010E94C70AF5CF60E0EDCFE4
:103E7000DF91CF911F910F91FF90EF90DF90CF9046
:103E8000089585ED8093BC008091700F9091710F23
:103E9000A091720FB091730F0796A11DB11D23E081
:103EA000B695A795979587952A95D1F72091BC004F
:103EB00024FD03C010926E0F08954091700F509131
:103EC000710F6091720F7091730F452B462B472B2A
:103ED00069F30097A105B10541F025E32A95F1F7B3
:103EE00000000197A109B109E1CF80916F0F0C94F7
:103EF000B7084F925F926F927F928F929F92AF928C
:103F0000BF92CF92DF92EF92FF92CF93DF93EC01BB
:103F10006A017B0120E030E0A901CB01B6010E94DB
:103F2000A43987FF04C0F7FAF094F7F8F0948C8C6A
:103F30009D8CAE8CBF8CA7019601C501B4010E9477
:103F4000A439882309F449C06CA97DA98EA99FA929
:103F50000E94AB392B013C01A7019601C501B401B8
:103F60000E94E63B9B01AC01C301B2010E940A3AE8
:103F70000E94583C6CAB7DAB8EAB9FABA70196010A
:103F800060E070E080E090E40E94E63B0E94993C93
:103F900026E53EE04DE25FE30E940A3A20E034E28B
:103FA00044E759E40E940A3A68AF79AF8AAF9BAF01
:103FB000CC8EDD8EEE8EFF8ECE01DF91CF91FF9005
:103FC000EF90DF90CF90BF90AF909F908F907F90B9
:103FD0006F905F904F900C944F0DDF91CF91FF90B9
:103FE000EF90DF90CF90BF90AF909F908F907F9099
:103FF0006F905F904F900895EF920F93CF93DF9360
:10400000EC0186E992E0998388836B831C861D8688
:104010001E861F86188A198A1A8A1B8A1C8A1D8A7C
:104020001E8A1F8A80E090E0A0E8BFE3888F998F06
:10403000AA8FBB8F1C8E1D8E1E8E1F8E88A399A3E8
:10404000AAA3BBA31CA21DA21EA21FA261E070E036
:104050007DA76CA73FEF3FA718A619A61AA61BA617
:104060004C832D830E83EF821EA61CAA1DAA1EAAB6
:104070001FAA18AE19AE1AAE1BAE1CAE1DAE1EAEF8
:104080001FAEFE01E05CFF4F80839183A283B38368
:104090001A82188619861A861B86CE010E942E0B5C
:1040A00040E050E060E87FE3CE01DF91CF910F91D7
:1040B000EF900C94791FCF92DF92EF92FF920F93C3
:1040C0001F93CF93DF930E940D1AD82F0E940D1AD1
:1040D0007C010E940D1A8C018091140BD817C0F539
:1040E0008091120B9091130B9C014EE0D49F200DF8
:1040F000311D1124E9018881882359F0B70190E02E
:1041000080E00E94A939AB01BC018A819B810E9499
:10411000A10E88818823E1F0B80190E080E00E9440
:10412000A9396B017C0120E030E0A9010E94A4398B
:10413000882371F0B701A6018A819B81DF91CF911D
:104140001F910F91FF90EF90DF90CF900C94791F0B
:10415000DF91CF911F910F91FF90EF90DF90CF9063
:1041600008958F929F92AF92BF92CF92DF92EF927B
:10417000FF92CF93DF930E940D1AD82FC82F0E9471
:104180009A03882309F495C081E0809334118093C9
:10419000351180913611909137110E9435396B019C
:1041A0007C018091140BC81708F078C08091120B25
:1041B0009091130B9C014EE0D49F200D311D1124D2
:1041C000E9018881882309F469C019828E819F8161
:1041D000A885B985C816D906EA06FB0609F45EC0AB
:1041E0008A819B81DC011C968D909D90AD90BC9046
:1041F0001F972B85222351F02D85222339F0ED9135
:10420000FC910280F381E02D19951D868C85882311
:1042100079F0C814D904EA04FB0454F48E819F8118
:10422000A885B985C816D906EA06FB060CF41C86D3
:104230008C85811110C08C149D04AE04BF045CF405
:104240008E819F81A885B9858C159D05AE05BF051A
:1042500014F481E08C878A819B814A852C85429F5A
:10426000A0011124052E000C660B770B4C0D5D1D73
:104270006E1D7F1DFC0180889188A288B388481537
:1042800059056A057B0531F0408B518B628B738B2E
:104290000E944F0DCE82DF82E886F986DF91CF91B2
:1042A000FF90EF90DF90CF90BF90AF909F908F9056
:1042B000089510923511C12CD12C760172CFBF9286
:1042C000CF92DF92EF92FF920F931F93CF93DF93E2
:1042D000EC01E62EC42ED22EFC88FF0C0F2D10E030
:1042E000A80170E060E004960E94EE3CEE2DEE0F17
:1042F000EC0FFD2FF11DC582D48260E08B810E94FE
:10430000A8040C5F1F4F0C0F1D1FFF20E1F0F801E8
:10431000B2908F0188E0C82ED12C90E8E92E6B2D49
:104320006E2189810E94A80461E08A810E94A8040C
:1043300060E08A810E94A804E694F1E0CF1AD108D7
:1043400071F7FA94E2CF61E08B81DF91CF911F91F9
:104350000F91FF90EF90DF90CF90BF900C94A80446
:104360008F929F92AF92BF92CF92DF92EF92FF9285
:104370000F931F93CF93DF930E940D1AEC010E94BD
:104380000D1A882E0E94EB035C010E940D1A6C012D
:104390000E940D1A47E14C9F90014D9F300D112452
:1043A0000091E3031091E403020F131FF801268923
:1043B000222309F43CC0C7E0D0E0912C7C01FF240B
:1043C000DD246C2F4C2F4F5FC7010C2E02C095953A
:1043D00087950A94E2F780FF28C0F801A4898A161D
:1043E00018F5F501E90DF11D808187FD80E2960148
:1043F0000C2E02C0359527950A94E2F720FD8068BF
:10440000F8019081992311F06A1770F4E82FEF7783
:10441000F0E0E556FB4F2491911116C087FD20680E
:10442000682DC8010E945F219394219750F6DF9177
:10443000CF911F910F91FF90EF90DF90CF90BF90A1
:10444000AF909F908F900895220F87FD2160A1501B
:10445000BB0BAC1BBD0BA00FB11F14962C9341E0FE
:10446000C8010E94BF10E0CF1F93CF93DF93DC0100
:104470002C9121110CC054962C91621700F521E06B
:1044800024274CE0DF91CF911F910C945F2155962A
:10449000EC91F0E0F595E7951E2F411101C01860F1
:1044A000EC010E94B81060E8610F40E0CE010E946C
:1044B0004710CE01DF91CF911F910C94A110DF9195
:1044C000CF911F9108950F931F93CF93DF93FC011A
:1044D00026892223C1F16217B0F5442391F12FEF11
:1044E000240F203108F02FE0D62F8C01FC01258B02
:1044F0008081811110C08489681720F44AE0C801C6
:104500000E945F2140E06D2FC801DF91CF911F9184
:104510000F910C943422C0E0413031F026954230A6
:1045200009F421E0C22FC860C8010E94B81060E8F9
:104530006C0F40E0C8010E944710C8010E94A11002
:10454000E1CF41E0E2CFDF91CF911F910F9108952C
:104550000F931F93CF930E940D1A8C010E940D1A86
:10456000C82F0E940D1A97E1909F9001919F300DE6
:104570001124E091E303F091E403482F6C2FCF0165
:10458000820F931FCF911F910F910C9463220C9473
:10459000A822EF92FF920F931F93CF93DF93F82EF1
:1045A000C0E087E1E82E8091E203C817B0F40091E3
:1045B000E3031091E403CE9D000D111D1124D0E002
:1045C000F80186898D1739F04F2D6D2FC8010E9493
:1045D0003422DF5FF5CFCF5FE6CFDF91CF911F9120
:1045E0000F91FF90EF9008950F931F93CF93DF9358
:1045F000EC01062F18814C89111110C0641748F482
:104600001F5F20E0412F602FCE010E945F211830F4
:10461000B9F7DF91CF911F910F91089550E070E0AD
:1046200060E004960E94EE3C4C896FEF640FCE016F
:10463000DF91CF911F910F910C94BF10FF920F93B8
:104640001F93CF93DF930E940D1AEC010E94EB039E
:104650008C010E940D1AF82E29E02C9FC0012D9F7D
:10466000900D1124C091E003D091E103C80FD91F30
:104670008885882391F163ED72E0C8010E945C395E
:1046800001E010E0009709F10E94173998859923FD
:1046900091F0982F9770980101C0220F9A95EAF730
:1046A000869586958695FE01E80FF11D8481FF2091
:1046B00049F0282B248363ED72E090E080E00E94B3
:1046C0005C39E0CF20952823F5CFCE01DF91CF9143
:1046D0001F910F91FF900C94F017DF91CF911F91D4
:1046E0000F91FF900895FF920F931F93CF93DF9345
:1046F0008C01EB01F8800E94C83AF81621F06F2D6A
:10470000C8010E94D03ACE01DF91CF911F910F9145
:10471000FF900895AF92BF92CF92DF92EF92FF92F7
:104720000F931F93CF93DF930E94EB036C01EC0177
:1047300009900020E9F72197C81BD90BDD27E090ED
:10474000070BF090080BC70101968C0F9D1F883D49
:10475000954008F053C05E018FEFA81AB80A2BE30A
:10476000E20EF11C95012E0D3F1D8091AB0F909133
:10477000AC0F8217930778F010E000E0B601600FED
:10478000711FC701800F911F0E9473230F5F1F4F7E
:104790000A151B0598F34091070B5091080BC40FA5
:1047A000D51FD093080BC093070B80916A1081111D
:1047B00047C085E00E94C41C80916A10882391F054
:1047C00060913E1180913B1190913C110E944D06E9
:1047D000AE0170E060E02AE080913B1190913C11C5
:1047E0000E945C1CDF91CF911F910F91FF90EF9081
:1047F000DF90CF90BF90AF900C943E1C80916A10D8
:1048000081111EC085E00E94C41C80916A1088231B
:1048100049F360913E1180913B1190913C110E94AF
:104820004D06C0913B11D0913C116DE2CE010E942A
:104830004D062AE041E050E060E070E0CE01D0CFCC
:10484000DF91CF911F910F91FF90EF90DF90CF906C
:10485000BF90AF900895CF93DF930E94EB03FC01CC
:1048600090E3ABE0B2E001900D929A95E1F7809170
:10487000AB0F9091AC0F892B29F063E290E080E0C0
:104880000E94D03A8091AB0F9091AC0FC09760F02E
:10489000D0E0C0E0BE01655F7D4F2196CE010E9451
:1048A0007323CF32D105B1F780916A1081110BC00B
:1048B00085E00E94C41C8BE092E00E94301EDF91D4
:1048C000CF910C943E1CDF91CF910895CF93DF934D
:1048D0000E944106611571058105910511F00E9444
:1048E0000E3983E5809300028EE4809301028DE20D
:1048F000809302028093060210920A020E94BF383F
:104900002FEF3FE040E050E00E94DE3AE0E0F2E0CE
:1049100093E0862F8F7020E3280F2A33D0F523836E
:1049200024E0769567952A95E1F79150319691119B
:10493000F0CF0E94BF382FEF3FE040E050E00E94F0
:10494000DE3AE0E0F2E093E0862F8F7020E3280F5C
:104950002A3310F5278384E0769567958A95E1F7E9
:10496000915031969111F0CF8091AB0F9091AC0F97
:10497000CB9760F0C0E3D0E0BE0160537E4FCE0124
:104980000E9473232196CB33D105B1F7DF91CF91EC
:104990000895885C8383C4CF895C8783DCCF0E94C1
:1049A000662480916A10811109C08AE00E94C41CAB
:1049B00080E092E00E94301E0C943E1C08950F93FC
:1049C0001F93CF93DF9380E390E00E94A319833578
:1049D000B9F581E390E00E94A3198E3489F58091A6
:1049E000AB0F9091AC0FCB9770F000E012E0C0E3FA
:1049F000D0E0CE010E94C83AF80181938F01219640
:104A0000CB33D105B1F78AE00E94C41C80916A10B3
:104A1000882321F083E894E00E9454068BE092E022
:104A20000E94301E80E092E00E94301E85ED92E0F0
:104A30000E94301EDF91CF911F910F910C943E1C6C
:104A40000E9466248091AB0F9091AC0FCC97D8F266
:104A500060E08BE390E00E94D03AD5CF2F923F9256
:104A60004F925F926F927F928F929F92AF92BF927E
:104A7000CF92DF92EF92FF920F931F93CF93DF932A
:104A8000CDB7DEB7E0970FB6F894DEBF0FBECDBF4F
:104A90008091070B9091080B892B11F40C94A12D98
:104AA0009BE3E92EF12CFCA6EBA61EA61DA6CE01CB
:104AB0008B960E94EA1B082F882311F40C94A12DD9
:104AC000FAA6E9A6CE0189960E94EA1B9E012F5FF5
:104AD0003F4F290192E1D9011D929A95E9F7882368
:104AE000C9F0F201E80FF11D80818F5F80836AE3D6
:104AF000CE0189960E94DD19182FCE0189960E9459
:104B0000EA1B882361F11111ECCF6CEC73E085E0B6
:104B10000E94D91CFE013796F8ABEFA7ABE42A2E12
:104B2000A6E43A2EEFEFE00FE13108F042C2F0E0E8
:104B30008827E256FA4D8F4F0C94713B7027CE298F
:104B4000B427DF27A4288A29422ACE29A428892B22
:104B5000282BEA2BD9274D2CA428DF27CF2C112373
:104B6000A1F21A81B5E01B9F70011124C7010E94B8
:104B7000480F81116BC18BED92E00E94E31E1C81F6
:104B8000E12EF12CEE0CFF1CC7010E94480F882378
:104B900009F46AC1C7010E94CE1D009719F0DC011B
:104BA00011961C9290930A0B8093090B1093B303F8
:104BB0001D81F988E12FEF0DFF27FF1F27E12E9FB1
:104BC00060012F9FD00C1124C6010E94480F88233A
:104BD00009F44FC1C6010E94CE1DFC01892B49F08A
:104BE0008FEF8083818382838383148A8FE0858B18
:104BF000168AF093E403E093E3031F0D1093B403CC
:104C0000E8888E812E2D280F3327331FEA84E20E89
:104C1000F32EF11C8EE08E9D60018F9DD00C11242F
:104C2000C6010E94480F882309F428C1C6010E94CA
:104C3000CE1D009711F0DC011C929093130B809312
:104C4000120BE092B5031F81B7E11B9F7001112485
:104C5000C7010E94480F882309F41AC1C7010E94A6
:104C6000CE1D0097B9F02091020B203308F00BC144
:104C700031E0320F3093020BFC01228730E0F90162
:104C8000EE0FFF1FE20FF31FEE58F54F28EB3BE04E
:104C9000328321839093E6038093E5031093B60358
:104CA0001985FB80E12FEF0DFF27FF1F2FE12E9FBE
:104CB00060012F9FD00C1124C6010E94480F882349
:104CC00009F4EBC0C6010E94CE1D009719F0DC016B
:104CD00012961C929093D7038093D6031F0D1093C6
:104CE000B7031885B2E11B9F70011124C7010E9410
:104CF000480F882309F4D6C0C7010E94CE1DFC01CD
:104D0000892B41F01382128280E792E091838083A5
:104D100011861686F093DF03E093DE031093B80349
:104D20001C85EEE11E9F70011124C7010E94480FEF
:104D3000882309F4BCC0C7010E94CE1DFC01892B49
:104D400061F080E19F012A5F3F4FD9011D928A9552
:104D5000E9F7178A168A108E158EF093C303E09335
:104D6000C2031093BA031B85B9E01B9F7001112485
:104D7000C7010E94480F882309F49EC0C7010E9402
:104D8000CE1D009711F0FC0110869093E1038093F3
:104D9000E0031093BB031D85FBE01F9F70011124EE
:104DA000C7010E94480F882309F48BC0C7010E94E5
:104DB000CE1D009741F0DC0116961C92FC01178273
:104DC0001086118612869093DA038093D90310938C
:104DD000BD031F85F6E01F9F70011124C7010E94CB
:104DE000480F882309F472C0C7010E94CE1DFC0140
:104DF000892B59F01092D3031092D20381E393E0F0
:104E000091838083138215821482F093CE03E09302
:104E1000CD031093BE031A8927E0129F700111245D
:104E2000C7010E94480F882309F455C0C7010E949A
:104E3000CE1D009721F0DC011C9216961C929093D7
:104E4000CB038093CA031093BF0364CEC7010E94B3
:104E5000CE1D009711F0FC0114829093C60380933D
:104E6000C5031093B2038BCE82EE92E00E94E31E44
:104E70009FCE89EE92E00E94E31EC2CE82EF92E0C6
:104E80000E94E31EE0CE2FEFDC011A962C9302CF96
:104E90008AEF92E00E94E31E03CF80E093E00E943D
:104EA000E31E1FCF89E093E00E94E31E39CF8DE01F
:104EB00093E00E94E31E57CF86E193E00E94E31E39
:104EC0006ACF84E293E00E94E31E83CF8AE393E0FB
:104ED0000E94E31EA0CF83E493E00E94E31E1ACE5B
:104EE000CE018B960E94EA1BF090C7039091B2030B
:104EF000F91689F12DA53EA50091C5031091C603B1
:104F0000F5E0FF9E000D111D1124D80114961C928E
:104F1000149712968C931297225C344F2D933C93E6
:104F200062E00E94D604F80182810E947F0421E0A1
:104F3000892B09F420E0D80113962C93139781E074
:104F400014968C9382E99EE19093C9038093C803E1
:104F5000F394F092C703BE01635D7F4FCE018B9641
:104F60000E94AE19182F25C5CE018B960E94EA1B10
:104F7000F0900B0B9091B303F916D9F00F2D10E0C0
:104F8000000F111F2091090B30910A0B020F131F04
:104F9000F8011182808361E00E94D604D801119645
:104FA0001C92119760E08C910E94A804F394F092F7
:104FB0000B0B6AE3CE018B960E94DD19D3CFB12C87
:104FC000003129F4CE018B960E94EA1BB82ECE0147
:104FD0008B960E94EA1B982ECE018B960E94EA1BAC
:104FE000782ECE018B960E94EA1BA82ECE018B96BE
:104FF0000E94EA1B882ECE018B960E94EA1B082F86
:10500000F090E2038091B403F81699F21B2DC09042
:10501000E303D090E403B7E1FB9EC00CD11C112444
:10502000F601148A8FE0858B168AB0829182A28263
:105030007382B11045C0802F093008F088E0D60196
:1050400054968C9361E0892D0E94D60461E0F601AC
:1050500082810E94D60461E0D60113968C910E9451
:10506000D60461E0F60183810E94A804D60154961B
:105070008C91181708F04CC020E04FE0612FC6015A
:105080000E945F21F6018081811109C0848918176F
:1050900030F427E04BE0612FC6010E945F2120E041
:1050A00049E0612FC6010E945F21612FC6010E9465
:1050B000F42241E0612FC6010E9434221F5FD6CF47
:1050C000FDEF84E0BF1286E0D60154968C9362E037
:1050D0008A2D0E94D60462E0F60181810E94D604E6
:1050E00060E0D60112968C910E94A80460E0F6015F
:1050F00081810E94A80460E0C6010E94F4228FE032
:10510000D60155968C9341E060E0C6010E9434229E
:10511000F601068B10E0D60156968C91181780F494
:10512000482D612FC6010E94632240E0612FC60115
:105130000E943422612FC6010E94F4221F5FEBCF30
:10514000F394F092E20335CFCE018B960E94EA1BD6
:10515000F82ECE018B960E94EA1BD82ECE018B969C
:105160000E94EA1BE82ECE018B960E94EA1BA82E15
:10517000093021F010E00F3009F047C0CE018B96C6
:105180000E94EA1B182F0F3009F03FC0CE018B960A
:105190000E94EA1B082FCE018B960E94EA1BB82EB4
:1051A000CE018B960E94EA1BC82E8091140B909121
:1051B000B503891709F4FDCE6090120B7090130BA4
:1051C000BEE08B9F600C711C1124F301108284E4FB
:1051D00090E00E94480F81111CC06BEE73E085E0E7
:1051E0000E94D91C0091140B112359F08091120BCD
:1051F0009091130BBEE00B9F800D911D11240E9416
:10520000540F0F5F0093140BD4CEC12CB12C00E0CF
:10521000CCCF013009F463C0023009F46DC0011134
:10522000E1CF84E490E0FE104AC0DA1048C00E944A
:10523000CE1D4C01892B49F0E5E0EE2E04E02D2D2A
:105240004F2D61E0C4010E94FC1FD30113969C9274
:105250008E92129740E050E068EC73E4D30112960E
:105260008D919C910E94A10E40E050E068E474E4AE
:10527000F301828193810E94791FD30114961C93BC
:10528000149781E015968C93112321F062E0812F11
:105290000E94D604F301B28681E0C11001C080E013
:1052A000D3011B968C931B9781E08C9311961C92D3
:1052B00011971D968C931D971C968C9393CF0E94EB
:1052C000CE1D4C01892B39F00F2D2D2D4A2D64E078
:1052D000C4010E94FC1FF30193828282BBCF84E44D
:1052E00090E00E94CE1D4C01892B09F4AECF0F2D0A
:1052F0002D2D4A2D68E0A6CF84E490E00E94CE1DBB
:105300004C01892B41F375E0E72E04E02D2D4F2D44
:1053100061E0DECFCE018B960E94EA1B9091E703FD
:105320002091B603921709F444CE2091020B20334A
:1053300098F531E0320F3093020B422F50E0FA0122
:10534000EE0FFF1FE40FF51FEE58F54F48EB5BE043
:1053500052834183E091E503F091E60337E1939FA7
:10536000E00DF11D112422871186158616861786F9
:10537000108A118A128A138A148A1282118224EBEB
:1053800030E034832383168215823087278380831D
:105390009F5F9093E7030DCE2FEFDCCFCE018B966E
:1053A0000E94EA1BD82ECE018B960E94EA1BC82EC3
:1053B00080E0083021F4CE018B960E94EA1BF09029
:1053C000D8039091B703F91609F4C5CD2DA53EA5D4
:1053D0000091D6031091D7034FE1F49E000D111DEB
:1053E0001124D80112961C92129716961C921E92A6
:1053F0001597225C344F14963C932E931397DC92AE
:105400001196CC92119795E0989FF0011124ED5AD6
:10541000FD4F199601900D929A95E1F762E08D2D5E
:105420000E94D60462E0F80181810E94D604D8016E
:105430001E961C921E9750961C921E921F97529673
:105440001C921E92519718961C921897F801178A71
:10545000108E118E128E24EF31E040E050E0539612
:105460002D933D934D935C93569781E012968C93C8
:1054700086E69EE19093D5038093D403F394F09253
:10548000D80369CDCE018B960E94EA1BD82ECE019F
:105490008B960E94EA1BF82ECE018B960E94EA1B87
:1054A0009091B9032091B803921709F482CD00912D
:1054B000DE031091DF03B2E19B9F000D111D11244B
:1054C000F8011382128215821682178210861186C5
:1054D000D786F08A818B91E09687D482F286838783
:1054E000148615861092270F1092260F1092750FB2
:1054F0001092970F0E9499082BEC39E030934C0AD8
:1055000020934B0A4CEC59E05093500A40934F0AB9
:10551000D80115961C9215971B968C911B9782307B
:1055200018F098E015969C93F8019485992329F03A
:10553000813019F485818460858362E370E080E0C6
:1055400090E00E940E06D8011D966C91C8010E9441
:10555000CD0A60E3C8010E94CD0AC1010197F1F7AD
:1055600060E3C8010E94CD0AC1010197F1F760E331
:10557000C8010E94CD0A83E592E00197F1F760E24D
:10558000C8010E94CD0AF8016581606240E0C8014F
:105590000E945D0A84E0D80116968C9340E06CE08E
:1055A000C8010E945D0AC8010E94AF0A82E0F801AA
:1055B000878340E066E0C8010E945D0A40E062E047
:1055C000C8010E945D0A8BE39FE10197F1F788E033
:1055D000D8011D968C931D9714968C910E94680398
:1055E000F801858590E00E944C0A0E94C8098CE071
:1055F0008093B800D8011E968C91882319F1C801B8
:105600000E94AF0AF8014189F12C433020F0469501
:10561000FF24FA94F40E4F2D60E573E0C8010E9458
:10562000071FD80151968C91823038F041E04F0D20
:105630006BE573E0C8010E94071F40E060E0C8010D
:105640000E94800A8091B9038F5F8093B903B1CC27
:10565000CE018B960E94EA1BD82ECE018B960E941B
:10566000EA1BF090C4039091BA03F91609F473CCC5
:105670002DA53EA590E1EFA5F8A911929A95E9F71D
:10568000188E1F8A198E1E8E9EE10091C203109102
:10569000C303F99E000D111D1124F201D8010190E0
:1056A0000D929A95E1F7D80115968C93159712965D
:1056B000DC921297225C344F2D933C9362E08D2D47
:1056C0000E94D60438E0D32EF801858D882319F086
:1056D000C8010E946B13DA94D110F6CFD801569608
:1056E0008D919C91579723E0969587952A95E1F7A0
:1056F00014969C938E93139781E05D968C93E5EAC4
:10570000FEE1F093C103E093C003F394F092C4036D
:1057100022CCCE018B960E94EA1B182FCE018B96CD
:105720000E94EA1BB82ECE018B960E94EA1B082F1E
:10573000CE018B960E94EA1BF090BC039091BB03B4
:10574000F91609F436CCC090E003D090E103F9E0FB
:10575000FF9EC00CD11C112491E0D60118969C9399
:1057600018971C931196BC92119712960C9312974E
:1057700013968C9361E0812F0E94D60461E0F601BC
:1057800081810E94D60461E0D60112968C910E941C
:10579000D604F601938186010C5F1F4FF80180E06B
:1057A000981719F011928F5FFBCFC6010E94F01776
:1057B000D60113969C9180E0981729F0F801119278
:1057C0008F018F5FF9CFC6010E94F017F394F0921A
:1057D000BC03EFCBCE018B960E94EA1BF82ECE01C4
:1057E0008B960E94EA1BC82ECE018B960E94EA1B64
:1057F000D82ECE018B960E94EA1B4091DB0390913C
:10580000BD03491709F4A7CB2DA53EA51886198617
:105810001A861B869BE00091D9031091DA03499FF9
:10582000000D111D11241F82F201D80101900D926B
:105830009A95E1F7D8011296FC9212971396CC92A2
:1058400013971496DC921497225C344F11963C9374
:105850002E9315968C9361E08F2D0E94D60461E003
:10586000F80183810E94D60460E0D80114968C91DF
:105870000E94D60481E0F801868360E0C8010E949E
:1058800030182DE43EE13093DD032093DC0380915A
:10589000DB038F5F8093DB035ECBCE018B960E9490
:1058A000EA1BF82ECE018B960E94EA1BD82ECE0161
:1058B0008B960E94EA1B082FCE018B960E94EA1B52
:1058C000182FCE018B960E94EA1BD092A40F009352
:1058D000A50F1093A60F8093A70F1092A80F04EAAC
:1058E0001FE061E0D8018D918D010E94D604E8EAA5
:1058F000FFE0E017F107A9F78091A80F816080937E
:10590000A80F60E084EA9FE00E941E11CE018B96F2
:105910000E94EA1B9091CF032091BE03921709F4D5
:105920001ACB2DA53EA544EA5FE05093D3034093E4
:10593000D2030091CD031091CE0356E0959F000D48
:10594000111D1124225C344FD80111963C932E93E3
:1059500013961C92139715961C921E9214971296EA
:10596000FC921297813019F482E013968C9362E0D6
:105970008F2D0E94D604F80183818160838360E0CB
:10598000C8010E949C1229E73EE13093D103209385
:10599000D0038091CF038F5F8093CF03DCCA6BA4C9
:1059A0007CA46EE2CE018B960E94DD19811113C09A
:1059B00010E0CE018B960E94EA1B082F882309F481
:1059C000BDC01111AFC81092250F69E674E085E0E3
:1059D0000E94D91CB6C0ABA4BCA46EE2CE018B96CB
:1059E0000E94DD19882321F36EE2CE018B960E947E
:1059F000DD198823E9F28091CC039091BF038917C8
:105A000009F4D7CAC090CA03D090CB0337E0839F74
:105A1000C00CD11C1124D6011C9216961C92AB28E6
:105A200009F482C0420110E064187508C301880DB2
:105A3000991D0E94A3191F5FF40181934F01183231
:105A400031F08E3299F7FE01E10FF11D108262E60E
:105A500073E0C2010E94F53C892B21F481E0D6015C
:105A600016968C9365E773E0C2010E94F53C892B82
:105A700019F482E0F6018683D60116968C916CE0CB
:105A800074E0813009F056C083E090E00E94480F36
:105A900064E474E0882309F44DC083E090E00E9440
:105AA000CE1DF601928381838CE08093B800109222
:105AB000270F1092260F1092750F1092970F0E94C9
:105AC00099082BEC39E030934C0A20934B0A4CECAC
:105AD00059E05093500A40934F0A8FE30E946803A5
